:100000000C9490000C94B8000C94B8000C94B800B8
:100010000C94B8000C94B8000C94B8000C94A5098A
:100020000C94B8000C94B8000C94B8000C94B80070
:100030000C94B8000C94B8000C94B8000C94B80060
:100040000C9436030C94B8000C94B8040C940A0574
:100050000C94B8000C94B8000C94B8000C94B80040
:100060000C94B8000C94B80008000000BE9224491B
:10007000123EABAAAA2ABECDCCCC4C3E00000080DA
:10008000BEABAAAAAA3E00000000BF000000803F4D
:100090000000000000084178D3BB4387D1133D190D
:1000A0000E3CC3BD4282AD2B3E68EC8276BED98F3A
:1000B000E1A93E4C80EFFFBE01C4FF7F3F0000007E
:1000C000000000000000240027002A0000000000BB
:1000D000250028002B000000000023002600290036
:1000E00004040404040404040202020202020303DE
:1000F00003030303010204081020408001020408E6
:100100001020010204081020000000070002010076
:100110000003040600000000000000000200DF06EB
:1001200011241FBECFEFD8E0DEBFCDBF11E0A0E0AD
:10013000B1E0E6E7FEE102C005900D92A83CB107F0
:10014000D9F712E0A8ECB1E001C01D92A739B107C0
:10015000E1F711E0C0E2D1E004C02297FE010E9465
:10016000350FCE31D107C9F70E94A6040C94390F80
:100170000C940000CF93DF9380E692E040E855E2D4
:1001800060E070E00E944505C0E0D0E006C080E677
:1001900092E060E071E00E9460088EEC91E0BE01A8
:1001A0000E940103682F80E692E04AE050E00E943E
:1001B0000E08219682E0C030D80749F780E692E029
:1001C0000E945F0780E692E00E94CC05DF91CF910C
:1001D0000895EF92FF920F931F93CF93DF937B01CC
:1001E0008C0120E030E040E050E00E947C0C1816CA
:1001F00014F0FF240BC0C801B70120E030E048EC48
:1002000052E40E94140E0E94ED0CF62E6091C9017A
:100210007091CA0182E06030780778F48EEC91E04A
:100220004F2D0E9408038091C9019091CA01019647
:100230009093CA018093C9011CC0C0E0D0E01C2F7C
:100240000D2F21968EEC91E0BE010E940103482FF4
:100250008EEC91E0612F702F0E94080381E0CF3F68
:10026000D80769F78EEC91E06FEF71E04F2D0E9497
:100270000803DF91CF911F910F91FF90EF900895A8
:10028000682F85E00E9451040895EF92FF920F932A
:100290001F93CF93DF9381E00E944001EE24FF245F
:1002A0008701C0E0D0E081E00E941403AA2797FDF7
:1002B000A095BA2FE80EF91E0A1F1B1F61E070E01F
:1002C00080E090E00E947E03219683E0C83ED8073C
:1002D00051F780E00E944001C801B7010E94190D4A
:1002E00020E030E04AE754E40E94800CDF91CF9197
:1002F0001F910F91FF90EF90089561E068278DE0C6
:100300000E9451040895EF92FF920F931F9381E092
:100310000E947D0168E873E180E090E00E947E0326
:100320000E9445017B018C0180E00E947D01C80193
:10033000B7012AE939E74DE354E40E94800C0E949A
:10034000D40D23EE35EA4BEE5FEB0E94800C1F913B
:100350000F91FF90EF9008950E94ED0C9B01AC016E
:1003600082E0B90120E030E040E050E00E94010A64
:100370000895882351F082E068EC70E020E030E0DE
:1003800040E050E00E94010A089582E00E948E0938
:100390000895EF92FF920F931F938091CB0190915C
:1003A000CC0101969093CC018093CB010E948301F4
:1003B0007B018C0180E692E040E855E260E070E06D
:1003C0000E94450580E692E062E071E00E946008CC
:1003D00080E692E0B801A70122E030E00E944709E0
:1003E00080E692E00E94CC058091CB019091CC01F7
:1003F00065E070E00E94CF0E892B21F4C801B7019F
:100400000E94E900C801B7012DEC3CEC4CEC5EE326
:100410000E94CB0D1816ECF5C801B7012DEC3CEC91
:100420004CEC5EE30E94170C20E030E24BEC55E40C
:100430000E94140E20E030E04CE852E40E94180CB8
:100440000E94E80C882777FD8095982F0E941B0D4D
:100450007B018C0120E030E048E453E40E947C0CF6
:1004600087FD0AC00F2EF0E0EF2EF0E0FF2EF8E43B
:100470000F2FF3E41F2FF02DC801B7010E94AC012C
:100480008091C801882341F060E375E780E090E047
:1004900007C080E00E94B90160E67AEE80E090E05B
:1004A0000E947E031F910F91FF90EF900895CF93CC
:1004B000DF930E94BA0085E061E00E9412048DE0A3
:1004C00061E00E94120480E00E947D0181E060E012
:1004D0000E9412048091B401882309F476C080E65A
:1004E00092E040E855E260E070E00E94450580E659
:1004F00092E06DE071E00E945A0968E873E180E0E3
:1005000090E00E947E0380E692E061E271E00E944A
:100510005A0980E692E060E371E00E945A0981E0A6
:100520000E94B90168E873E180E090E00E947E03D8
:1005300080E692E061E471E00E945A0980E00E9446
:10054000B90168E873E180E090E00E947E0380E6F4
:1005500092E063E571E00E945A0981E00E947D010A
:1005600068E873E180E090E00E947E0380E692E01C
:1005700065E671E00E945A0980E00E947D0168E80A
:1005800073E180E090E00E947E0380E692E068E7FD
:1005900071E00E945A09C0E0D0E00E948301AB01E3
:1005A000BC0180E692E022E030E00E9447092196FB
:1005B000C330D10591F780E692E063E971E00E94D3
:1005C0005A0980E692E00E94CC058091CD018823F3
:1005D00079F081E00E94B901C0E0D0E060E67AEEF7
:1005E00080E090E00E947E032196CA30D105B1F7E9
:1005F00080E00E94B90180E00E947D01DF91CF91EF
:100600000895F999FECF72BD61BDF89A80B508953D
:10061000F999FECF1FBA72BD61BD40BD0FB6F89407
:10062000FA9AF99A0FBE0895982F8E3008F09E50CE
:1006300097708091B5018295880F880F807C892BF7
:1006400080937C0080917A00806480937A0080910E
:100650007A0086FDFCCF2091780040917900942F9C
:1006600080E030E0282B392BC90108951F920F92AA
:100670000FB60F9211242F933F938F939F93AF93B5
:10068000BF938091D3019091D401A091D501B091F5
:10069000D6013091D7010196A11DB11D232F2D5FE9
:1006A0002D3720F02D570196A11DB11D2093D701A4
:1006B0008093D3019093D401A093D501B093D60138
:1006C0008091CF019091D001A091D101B091D20140
:1006D0000196A11DB11D8093CF019093D001A093ED
:1006E000D101B093D201BF91AF919F918F913F9172
:1006F0002F910F900FBE0F901F9018959B01AC018A
:100700007FB7F8948091CF019091D001A091D10151
:10071000B091D20166B5A89B05C06F3F19F0019654
:10072000A11DB11D7FBFBA2FA92F982F8827860F33
:10073000911DA11DB11D62E0880F991FAA1FBB1F4B
:100740006A95D1F7BC012DC0FFB7F8948091CF0115
:100750009091D001A091D101B091D201E6B5A89BB2
:1007600005C0EF3F19F00196A11DB11DFFBFBA2FC3
:10077000A92F982F88278E0F911DA11DB11DE2E092
:10078000880F991FAA1FBB1FEA95D1F7861B970BED
:10079000885E9340C8F2215030404040504068513C
:1007A0007C4F211531054105510571F60895789466
:1007B00084B5826084BD84B5816084BD85B5826066
:1007C00085BD85B5816085BDEEE6F0E08081816004
:1007D0008083E1E8F0E01082808182608083808104
:1007E00081608083E0E8F0E0808181608083E1EBDC
:1007F000F0E0808184608083E0EBF0E080818160C4
:100800008083EAE7F0E08081846080838081826079
:100810008083808181608083808180688083109262
:10082000C1000895CF93DF93482F50E0CA018C5048
:100830009F4FFC01349140525F4FFA01849188230D
:1008400069F190E0880F991FFC01EE53FF4FA591CD
:10085000B491FC01E453FF4FC591D491662351F448
:100860002FB7F8948C91932F909589238C9388813E
:1008700089230BC0623061F42FB7F8948C91932FC9
:10088000909589238C938881832B88832FBF06C002
:100890009FB7F8948C91832B8C939FBFDF91CF915E
:1008A0000895482F50E0CA01885F9E4FFC012491B3
:1008B000CA018C509F4FFC01949140525F4FFA0146
:1008C0003491332309F440C0222351F1233071F0D5
:1008D000243028F42130A1F0223011F514C0263044
:1008E000B1F02730C1F02430D9F404C080918000E9
:1008F0008F7703C0809180008F7D8093800010C02F
:1009000084B58F7702C084B58F7D84BD09C0809186
:10091000B0008F7703C08091B0008F7D8093B000CE
:10092000E32FF0E0EE0FFF1FE453FF4FA591B491CA
:100930002FB7F894662321F48C919095892302C0F7
:100940008C91892B8C932FBF08950895CF93DF93BB
:100950000E94D7030E94A5040E945702C3EFD4E06F
:100960000E94C9012097E1F30E94F304F9CF089592
:100970001F920F920FB60F9211242F933F934F9314
:100980008F939F93EF93FF938091C00082FD1DC0D2
:100990004091C60020911802309119022F5F3F4FFD
:1009A0002F73307080911A0290911B02281739071B
:1009B00071F0E0911802F0911902E852FE4F408365
:1009C000309319022093180202C08091C600FF9153
:1009D000EF919F918F914F913F912F910F900FBE6B
:1009E0000F901F901895E0916C02F0916D02E05C01
:1009F000FF4F8191919120813181805C9F4F821BBB
:100A0000930B60E470E00E94E30E892B11F00E94CA
:100A1000B70408951F920F920FB60F9211242F93CF
:100A20003F938F939F93EF93FF9320915C023091BC
:100A30005D0280915E0290915F022817390731F4C0
:100A40008091C1008F7D8093C10014C0E0915E024F
:100A5000F0915F02E45EFD4F208180915E029091F3
:100A60005F0201968F73907090935F0280935E0295
:100A70002093C600FF91EF919F918F913F912F910D
:100A80000F900FBE0F901F901895AF92BF92DF92FC
:100A9000EF92FF920F931F93CF93DF93EC017A01B4
:100AA0008B01DD24403081EE580780E0680780E04C
:100AB000780711F0DD24D39491E0A92EB12CEC89B4
:100AC000FD89DD2069F0C50108A002C0880F991FCB
:100AD0000A94E2F7808360E079E08DE390E005C05E
:100AE000108260E874E88EE190E0A80197010E940E
:100AF000F60E21503040404050405695479537956E
:100B0000279580E12030380720F0DD2011F0DD242A
:100B1000D6CFE889F9893083EA89FB89208319A235
:100B2000EE89FF89408121E030E0C9010C8C02C0D0
:100B3000880F991F0A94E2F7482B4083EE89FF89BA
:100B40004081C9010D8C02C0880F991F0A94E2F7F9
:100B5000482B4083EE89FF894081C9010E8C02C079
:100B6000880F991F0A94E2F7482B4083EE89FF898A
:100B700080810F8C02C0220F331F0A94E2F7209568
:100B800028232083DF91CF911F910F91FF90EF9049
:100B9000DF90BF90AF900895CF93DF93DC011E9656
:100BA0008D919C911F97EC01C05CDF4FFC01EE5BC7
:100BB000FF4F288139818081918128173907C9F732
:100BC0005696ED91FC915797408121E030E0C901A4
:100BD0005C960C905C9702C0880F991F0A94E2F70C
:100BE0008095842380835696ED91FC9157974081A0
:100BF000C9015D960C905D9702C0880F991F0A94F9
:100C0000E2F78095842380835696ED91FC91579767
:100C10004081C9015E960C905E9702C0880F991FB3
:100C20000A94E2F78095842380835696ED91FC9197
:100C3000579780815F960C905F9702C0220F331FF9
:100C40000A94E2F72095282320831C96ED91FC91CD
:100C50001D97EE5BFF4F8081918192938293DF918C
:100C6000CF910895DC011C96ED91FC911D97E05CFD
:100C7000FF4F8191919120813181805C9F4F821B38
:100C8000930B60E470E00E94E30E0895DC011C9673
:100C9000ED91FC911D97E05CFF4F20813181E05484
:100CA000F040DF01AE5BBF4F8D919C9111972817EB
:100CB000390719F42FEF3FEF07C08D919C91E80F92
:100CC000F91F8081282F30E0C9010895DC011C96AE
:100CD000ED91FC911D97E05CFF4F20813181E05444
:100CE000F040DF01AE5BBF4F8D919C9111972817AB
:100CF000390719F42FEF3FEF10C08D919C91119798
:100D0000E80FF91F20818D919C91119701968F73A7
:100D1000907011969C938E9330E0C9010895DC0188
:100D200091968C919197882339F05496ED91FC918E
:100D30005597808186FFF9CF91961C920895CF93A5
:100D4000DF93EC01EE85FF85E05CFF4F2081318170
:100D5000E054F0402F5F3F4F2F733070DF01AE5BE8
:100D6000BF4F8D919C91119728173907D1F3E05C03
:100D7000FF4F80819181E054F040E80FF91F6083BC
:100D8000EE85FF85E05CFF4F31832083EE89FF898C
:100D9000208181E090E00F8C02C0880F991F0A9497
:100DA000E2F7282B208381E089A3EC89FD898081EB
:100DB0008064808381E090E0DF91CF91089510926C
:100DC00063021092620288EE93E0A0E0B0E08093AC
:100DD000640290936502A0936602B09367028BEB66
:100DE00091E0909361028093600288ED91E090938E
:100DF0006D0280936C028CE192E090936F0280937D
:100E00006E0285EC90E0909371028093700284EC06
:100E100090E0909373028093720280EC90E0909344
:100E200075028093740281EC90E090937702809336
:100E3000760282EC90E0909379028093780286ECBF
:100E400090E090937B0280937A0284E080937C020E
:100E500083E080937D0287E080937E0285E080932B
:100E60007F0281E0809380020895CF92DF92EF921B
:100E7000FF920F931F93CF93DF937C016B018A0145
:100E8000C0E0D0E00FC0D6016D916D01D701ED91AA
:100E9000FC910190F081E02DC7010995C80FD91F81
:100EA000015010400115110571F7CE01DF91CF916E
:100EB0001F910F91FF90EF90DF90CF900895EF92E8
:100EC000FF920F931F938C01DC01ED91FC91019037
:100ED000F081E02D6DE009957C01D801ED91FC9148
:100EE0000190F081E02DC8016AE009959C012E0D6A
:100EF0003F1DC9011F910F91FF90EF900895CF936F
:100F0000DF93EC016115710519F420E030E00FC0AA
:100F1000DB010D900020E9F71197A61BB70BE881C4
:100F2000F9810280F381E02DAD0109959C01C90191
:100F3000DF91CF9108954F925F927F928F929F920F
:100F4000AF92BF92CF92DF92EF92FF920F931F93D7
:100F5000DF93CF93CDB7DEB7A1970FB6F894DEBF7E
:100F60000FBECDBF2C01742ECB01223008F42AE035
:100F700019A231E2C32ED12CCC0EDD1E822E992473
:100F8000AA24BB24672D752FA50194010E94F60E9B
:100F900079018A01C801B701A50194010E94B00E30
:100FA000472D461B0894C108D1084A3014F4405D0F
:100FB00001C0495CF6014083E114F104010511050B
:100FC00021F07E2C5F2DC801DDCFC201B6010E9449
:100FD0007F07A1960FB6F894DEBF0FBECDBFCF91AD
:100FE000DF911F910F91FF90EF90DF90CF90BF9016
:100FF000AF909F908F907F905F904F900895DC010D
:101000002115310541F4ED91FC910190F081E02D25
:10101000642F099508950E949B070895EF92FF920F
:101020000F931F939A01E62EFF2400E010E0B80111
:10103000A7010E94FF071F910F91FF90EF90089565
:10104000CF92DF92EF92FF920F931F93CF93DF9394
:10105000EC016A017B012115310541F4E881F98138
:101060000190F081E02D642F09951FC02A303105D1
:10107000D1F477FF17C0E881F9810190F081E02D6C
:101080006DE209958C0144275527BA014C195D0979
:101090006E097F09CE012AE00E949B079801280F64
:1010A000391F04C02AE00E949B079C01C901DF91FF
:1010B000CF911F910F91FF90EF90DF90CF90089507
:1010C0000E947F0708957F928F929F92AF92BF9266
:1010D000CF92DF92EF92FF920F931F93CF93DF9304
:1010E0004C017A018B01722ECB01BA01A801970144
:1010F0000E94770E882321F0C40166EA71E021C0C6
:10110000C0E0D0E057016801E894D7F8C601B50106
:101110002FEF3FEF4FE75FE70E94770E882351F4F0
:10112000C601B5012FEF3FEF4FE75FE70E947C0C50
:10113000181614F0C1E0D0E0219739F0C4016AEA32
:1011400071E00E947F07EC0193C0C801B7012FEF47
:101150003FEF4FE75FE40E94CB0D181654F0C80133
:10116000B7012FEF3FEF4FE75FEC0E947C0C882325
:1011700024F4C4016EEA71E0E4CFC801B70120E0B5
:1011800030E040E050E00E947C0C87FD03C0C0E0EE
:10119000D0E00EC0D401ED91FC910190F081E02DE2
:1011A000C4016DE20995EC0117FB109517F9109534
:1011B00020E030E040E05FE3DD240BC0CA01B9016C
:1011C00020E030E040E251E40E94800C9B01AC0141
:1011D000D394D71498F3C801B7010E94180C5B018F
:1011E0006C010E94ED0C7B018C01C401B801A701C8
:1011F0002AE030E00E94FF07C80FD91F772039F09E
:10120000C40162EB71E00E947F07C80FD91FC801BB
:10121000B7010E94190D9B01AC01C601B5010E94E6
:10122000170C24C020E030E040E251E40E94140E8C
:101230007B018C010E94E80C5B016C01CC24B7FCA3
:10124000C094DC2CC401B601A5012AE030E00E9464
:101250002008C80FD91FC601B5010E941B0D9B01B4
:10126000AC01C801B7010E94170C7A947720D1F61F
:10127000CE01DF91CF911F910F91FF90EF90DF9002
:10128000CF90BF90AF909F908F907F900895EF92F6
:10129000FF920F931F937C010E9463088C01C7018A
:1012A0000E945F07080F191FC8011F910F91FF903F
:1012B000EF900895EF92FF920F931F937C010E948D
:1012C0007F078C01C7010E945F07080F191FC80123
:1012D0001F910F91FF90EF900895813041F0813080
:1012E00018F08230D1F409C010926E0008958091F8
:1012F0006F008D7F80936F000895809170008D7FC7
:101300008093700081E08093B0008091B100887F6D
:1013100084608093B1001092B30008951F93182F3A
:101320008091B601811711F09FEF06C0ECE1F1E06A
:1013300094918FEF8093B601892F0E946D09812FC0
:1013400060E00E9451041F9108951F920F920FB602
:101350000F9211242F933F934F935F936F937F933B
:101360008F939F93AF93BF93EF93FF9380919002DE
:1013700090919102A0919202B09193020097A105E1
:10138000B10551F1E0919402F09195028081909124
:101390009602892780838091900290919102A0917A
:1013A0009202B0919302181619061A061B06C4F48D
:1013B0008091900290919102A0919202B09193023B
:1013C0000197A109B1098093900290939102A09393
:1013D0009202B093930204C08091B6010E948E09DC
:1013E000FF91EF91BF91AF919F918F917F916F91FD
:1013F0005F914F913F912F910F900FBE0F901F90D3
:1014000018952F923F925F926F927F928F929F9248
:10141000AF92BF92CF92DF92EF92FF920F931F9302
:10142000DF93CF9300D000D0CDB7DEB7A82F1B013C
:1014300029833A834B835C838091B6018A1721F418
:10144000ECE1F1E0549082C08F3F09F0DAC1A09343
:10145000B601ECE1F1E054902FEF521609F4D1C13E
:1014600081E0581639F192E0591609F449C0552027
:1014700009F06CC014BC15BC84B5826084BD85B510
:10148000816085BD2A2F30E0F901E052FF4FE491E1
:10149000F0E0EE0FFF1FE453FF4F8591949190937E
:1014A0008702809386022C503F4FF90184918093EC
:1014B00088024EC0109280001092810080918100BD
:1014C0008860809381008091810081608093810099
:1014D0002A2F30E0F901E052FF4FE491F0E0EE0FE7
:1014E000FF1FE453FF4F8591949190938E02809358
:1014F0008D022C503F4FF901849180938F0228C0B8
:101500001092B0001092B1008091B0008260809380
:10151000B0008091B10081608093B1002A2F30E04B
:10152000F901E052FF4FE491F0E0EE0FFF1FE453AA
:10153000FF4F8591949190939502809394022C5043
:101540003F4FF90184918093960202C057FC59C124
:101550008A2F61E00E941204552021F0F2E05F160C
:1015600009F0BEC031018824992460E072E18AE765
:1015700090E0A40193010E94180F59016A018601AD
:1015800075010894E108F108010911092FEFE2162D
:10159000F1040105110509F008F499C060E472E452
:1015A0008FE090E0A40193010E94180F79018A0155
:1015B0000894E108F1080109110982E05816C1F404
:1015C0009FEFE916F1040105110509F008F484C044
:1015D00060E970ED83E090E0A40193010E94180F90
:1015E00079018A010894E108F1080109110983E0F1
:1015F000AFEFEA16F1040105110509F008F468C01F
:1016000068E478EE81E090E0A40193010E94180F55
:1016100079018A010894E108F108010911095520AE
:1016200011F483E01DC0B2E05B1611F084E018C035
:10163000EFEFEE16F1040105110509F008F4DFC023
:1016400064E274EF80E090E0A40193010E94180F1F
:1016500079018A010894E108F1080109110985E07E
:10166000FFEFEF16F1040105110591F188F162E138
:101670007AE780E090E0A40193010E94180F7901BD
:101680008A010894E108F10801091109552011F0B7
:1016900086E001C084E02FEFE216F1040105110598
:1016A000B9F0B0F0C601B50120E034E040E050E010
:1016B0000E94180F79018A010894E108F1080109D4
:1016C0001109552011F087E008C085E003C081E0D2
:1016D000552019F485BD3AC082E08093B10036C030
:1016E0005101CC24DD2460E072E18AE790E0A6019C
:1016F00095010E94180F79018A010894E108F10808
:101700000109110980E0E81680E0F80681E0080789
:1017100080E0180710F491E010C068E478EE81E0F2
:1017200090E0A60195010E94180F79018A010894A2
:10173000E108F1080109110993E0A1E05A1631F41A
:1017400080918100887F982B9093810089819A8174
:10175000AB81BC810097A105B10529F48FEF9FEF04
:10176000AFEFBFEF13C0220C331CB10180E090E05B
:1017700029813A814B815C810E94B00E28EE33E0D2
:1017800040E050E00E94F60EC901DA01E1E05E1689
:10179000A1F0F2E05F1619F1552099F5E7BC8093AE
:1017A000820290938302A0938402B0938502809179
:1017B0006E00826080936E0024C0F0928900E092F7
:1017C00088008093890290938A02A0938B02B09341
:1017D0008C0280916F00826080936F0012C0E09253
:1017E000B3008093900290939102A0939202B093E1
:1017F00093028091700082608093700002C084E048
:101800006CCF0F900F900F900F90CF91DF911F91A1
:101810000F91FF90EF90DF90CF90BF90AF909F908F
:101820008F907F906F905F903F902F9008955058C9
:10183000BB27AA270ED075C166D130F06BD120F03E
:1018400031F49F3F11F41EF45BC10EF4E095E7FB09
:1018500051C1E92F77D180F3BA1762077307840764
:10186000950718F071F49EF58FC10EF4E0950B2EDC
:10187000BA2FA02D0B01B90190010C01CA01A001E2
:101880001124FF27591B99F0593F50F4503E68F13D
:101890001A16F040A22F232F342F4427585FF3CF7E
:1018A000469537952795A795F0405395C9F77EF44F
:1018B0001F16BA0B620B730B840BBAF09150A1F098
:1018C000FF0FBB1F661F771F881FC2F70EC0BA0F1E
:1018D000621F731F841F48F4879577956795B795A6
:1018E000F7959E3F08F0B3CF9395880F08F099279E
:1018F000EE0F979587950895D9D008F481E0089563
:101900000CD00FC107D140F0FED030F021F45F3F82
:1019100019F0F0C0511139C1F3C014D198F39923D3
:10192000C9F35523B1F3951B550BBB27AA276217A3
:101930007307840738F09F5F5F4F220F331F441FE8
:10194000AA1FA9F333D00E2E3AF0E0E830D0915020
:101950005040E695001CCAF729D0FE2F27D0660F0D
:10196000771F881FBB1F261737074807AB07B0E84C
:1019700009F0BB0B802DBF01FF2793585F4F2AF062
:101980009E3F510568F0B6C000C15F3FECF3983E42
:10199000DCF3869577956795B795F7959F5FC9F7BF
:1019A000880F911D9695879597F90895E1E0660F48
:1019B000771F881FBB1F621773078407BA0720F0C1
:1019C000621B730B840BBA0BEE1F88F7E09508952A
:1019D00004D06894B111D9C00895BCD088F09F5745
:1019E00090F0B92F9927B751A0F0D1F0660F771F6B
:1019F000881F991F1AF0BA95C9F712C0B13081F04B
:101A0000C3D0B1E00895C0C0672F782F8827B85F92
:101A100039F0B93FCCF3869577956795B395D9F7AB
:101A20003EF490958095709561957F4F8F4F9F4FB5
:101A30000895E89409C097FB3EF4909580957095C1
:101A400061957F4F8F4F9F4F9923A9F0F92F96E90A
:101A5000BB279395F695879577956795B795F1117F
:101A6000F8CFFAF4BB0F11F460FF1BC06F5F7F4F1C
:101A70008F4F9F4F16C0882311F096E911C077232E
:101A800021F09EE8872F762F05C0662371F096E837
:101A9000862F70E060E02AF09A95660F771F881F06
:101AA000DAF7880F9695879597F90895990F0008AA
:101AB000550FAA0BE0E8FEEF16161706E807F90720
:101AC000C0F012161306E407F50798F0621B730BBB
:101AD000840B950B39F40A2661F0232B242B252B3C
:101AE00021F408950A2609F4A140A6958FEF811DDF
:101AF000811D089597F99F6780E870E060E0089580
:101B00009FEF80EC089500240A9416161706180615
:101B10000906089500240A941216130614060506F1
:101B20000895092E0394000C11F4882352F0BB0F82
:101B300040F4BF2B11F460FF04C06F5F7F4F8F4FE5
:101B40009F4F089557FD9058440F551F59F05F3F20
:101B500071F04795880F97FB991F61F09F3F79F0CF
:101B600087950895121613061406551FF2CF469551
:101B7000F1DF08C0161617061806991FF1CF8695D3
:101B80007105610508940895E894BB2766277727B7
:101B9000CB0197F908958ADF08F48FEF08950EF0CE
:101BA000AAC0AECF6894A6CFD5DFC8F39923D1F3EE
:101BB000C6F3DF93CF931F930F93FF92C92FDD27B7
:101BC00088232AF02197660F771F881FDAF720E015
:101BD00030E040E85FEB9FE3883920F0803E30F052
:101BE00021968F7725DEE8E6F0E003C021DEE5E907
:101BF000F0E091D08B01BE01EC01FB2E6F57710913
:101C00007595771F880B990B16DF28E132E741E3C2
:101C10005FE316D0AF2D9801AE01FF900F911F9199
:101C2000CF91DF9116DE7DCF0BD07BCF6CDF28F01C
:101C300071DF18F0952309F05DCF62CF1124A5CF95
:101C400081DFA0F3959FD1F3950F50E0551F629F60
:101C5000F001729FBB27F00DB11D639FAA27F00D05
:101C6000B11DAA1F649F6627B00DA11D661F829F2C
:101C70002227B00DA11D621F739FB00DA11D621F11
:101C8000839FA00D611D221F749F3327A00D611D2E
:101C9000231F849F600D211D822F762F6A2F112410
:101CA0009F5750408AF0E1F088234AF0EE0FFF1F63
:101CB000BB1F661F771F881F91505040A9F79E3F9A
:101CC000510570F017CF61CF5F3FECF3983EDCF326
:101CD000869577956795B795F795E7959F5FC1F7D7
:101CE000FE2B880F911D9695879597F90895DEDE56
:101CF000880B990B08959F3F49F0915028F48695E1
:101D000077956795B7959F5F80389F4F880F969519
:101D1000879597F90895DF93CF931F930F93FF92C1
:101D2000EF92DF927B018C01689405C0DA2EEF01FF
:101D300087DFFE01E894A591259135914591559154
:101D4000AEF3EF0186DDFE019701A801DA9479F781
:101D5000DF90EF90FF900F911F91CF91DF91089549
:101D6000629FD001739FF001829FE00DF11D649F7F
:101D7000E00DF11D929FF00D839FF00D749FF00D0B
:101D8000659FF00D9927729FB00DE11DF91F639FAC
:101D9000B00DE11DF91FBD01CF0111240895AA1B4B
:101DA000BB1B51E107C0AA1FBB1FA617B70710F046
:101DB000A61BB70B881F991F5A95A9F78095909578
:101DC000BC01CD01089597FB092E07260AD077FDA7
:101DD00004D0E5DF06D000201AF4709561957F4F9E
:101DE0000895F6F7909581959F4F0895A1E21A2ED8
:101DF000AA1BBB1BFD010DC0AA1FBB1FEE1FFF1FAF
:101E0000A217B307E407F50720F0A21BB30BE40BFE
:101E1000F50B661F771F881F991F1A9469F7609545
:101E20007095809590959B01AC01BD01CF010895FF
:101E300097FB092E05260ED057FD04D0D7DF0AD018
:101E4000001C38F450954095309521953F4F4F4FE9
:101E50005F4F0895F6F790958095709561957F4F47
:101E60008F4F9F4F0895EE0FFF1F0590F491E02DC7
:061E70000994F894FFCF75
:101E76002C004D656173757265643A20005761697F
:101E860074696E6720666F7220746573742E2E2EC9
:101E9600005374617274696E6720746573742E00E2
:101EA6005475726E696E672070756D70206F6E2E38
:101EB600005475726E696E672070756D70206F665E
:101EC600662E005475726E696E6720636C616D7064
:101ED600206F6E2E005475726E696E6720636C619A
:101EE6006D70206F66662E0054657374696E672088
:101EF6004C454420616E64204F442073656E736FB9
:101F0600722E00446F6E652077697468207465735D
:101F160074696E672E006E616E00696E66006F767C
:101F260066002E000101FF000000009F0635073203
:081F360006660646068F060050
:00000001FF
